:020000040800F2
:100000006004002001010008770D00080D0D0008B4
:10001000750D00080D040008830D000800000000A5
:100020000000000000000000000000007B0D000840
:100030000F04000800000000790D00087D0D000885
:100040001B0100081B0100081B0100081B01000820
:100050001B0100081B0100081B0100081B01000810
:100060001B0100081B0100081B0100081B01000800
:100070001B0100081B0100081B0100081B010008F0
:100080001B0100081B0100081B0100081B010008E0
:100090001B0100081B0100081B0100081B010008D0
:1000A0001B0100081B0100081B0100081B010008C0
:1000B0001B0100081B0100081B0100081B010008B0
:1000C0001B0100081B0100081B0100081B010008A0
:1000D0001B0100081B0100081B0100081B01000890
:1000E0001B0100081B0100081B010008DFF80CD0F1
:1000F00000F02EF900480047ED10000860040020D1
:100100000648804706480047FEE7FEE7FEE7FEE7B1
:10011000FEE7FEE7FEE7FEE7FEE7FEE7810D0008EB
:10012000ED000008D2B201E000F8012B491EFBD21D
:1001300070470022F6E710B513460A4604461946F2
:10014000FFF7F0FF204610BDF0B480EA0102D40FA3
:100150004200B2EB410F02D20246084611464A0065
:1001600042D0C30DDDB2C1F3C752AD1A202D35DA2E
:10017000C1F3160141F4000204B15242C5F1200658
:1001800002FA06F12A411044B3EBD05F23D0C4B188
:10019000012DA0EBC35009DCF0BC4FF0004202EA95
:1001A000C352DBB200F5000000F03BB8400000F1A4
:1001B000807000EBC350A0F1807040EAD17049001C
:1001C00009E0490841EAC071A0EBC35000F5000006
:1001D000400800EBC350F0BC00F01AB861420122A5
:1001E00002EB4101001BF6E7F0BC704781F00041D3
:1001F000AAE780F00040A7E7420005D0C0F3C7524D
:100200005242914201DC0020704700EBC150704720
:100210000029A8BF7047401C490008BF20F001001A
:10022000704710B4B0FA80FC00FA0CF050EA0104F8
:1002300004BF10BC704749B1CCF1200421FA04F48A
:1002400011FA0CF118BF012121430843A3EB0C0163
:10025000CB1D4FEA00614FEA102042BF002010BCC6
:10026000704700EBC35010440029A4BF10BC704776
:10027000401C490008BF20F0010010BC704780EA14
:10028000010210B502F00043400022D04A001FD006
:10029000010E01EB1261C0F35600C2F3560240F4A6
:1002A000000042F40002A0FB022000047F39140485
:1002B00000D0401C50EA124001D44000491EC2B296
:1002C0000C0604EBD010401C4008802A02D003E04A
:1002D000002010BD20F00100002900DA00201843A2
:1002E00010BD10B541000CD0C0F3C751962908DCF1
:1002F0007E2909DC06DB410204D000F0004040F01A
:100300007E5010BD002010BDC1F19604C4F1200143
:1003100000FA01F1E040FFF77BFFA04010BD00F0C4
:10032000004220F00040C10DC0F3160040F4000070
:100330007F2901DA00207047962903DCC1F196017C
:10034000C84001E096398840002AF4D04042704706
:10035000064C074D06E0E06840F0010394E8070012
:1003600098471034AC42F6D3FFF7C4FE10130008D0
:100370003013000830B480EA010202F0004530F08A
:10038000004221F0004013D090B1C30DD40DC2F350
:100390001601C0F31600E41A41F4000140F4000213
:1003A0007D34914201D3641C00E04900002C02DA44
:1003B00030BC002070474FF400000023914201D36D
:1003C000891A034340084FEA4101F7D151B19142E4
:1003D00002D14FF0004105E002D24FF0010101E0EF
:1003E0006FF0010103EBC450284430BCFFF710BF8D
:1003F000C10F80EAE0700844CA0796230021FFF786
:1004000010BF962300221146FFF70BBFFEE770478F
:1004100072B6FEE770B5044600F0FEF80546601CB3
:1004200002D004480078044400F0F6F8401BA042D3
:10043000FAD370BD040000202DE9F84FDFF8B89121
:100440000024A9F1040B23460F2709F1040AABF19C
:10045000040EC9E00125A5402A40AA427DD1674E7D
:10046000D1F804C0ACEB0608B44532D014DCBCF1C2
:10047000030F3AD009DCBCF1000F2AD0BCF1010F08
:100480001CD0BCF1020F31D11DE0BCF1110F17D00F
:10049000BCF1120F2AD119E0B8F5881F19D006DC7B
:1004A000B8F5803F15D0B8F5801F1FD111E0B8F521
:1004B000001F0ED0B8F5041F18D10AE0CB6815E074
:1004C000CB681B1D12E0CB6808330FE0CB680C3300
:1004D0000CE08B682BB1012B4FF0080303D0456172
:1004E00004E0042302E0056100E00023FF2A01D8B4
:1004F000064601E000F104064FEA840501D9A5F1A2
:100500002005D6F8008007FA05FC28EA0C0803FA53
:1005100005F548EA0508C6F800804D68ED0062D58B
:10052000374DAE6946F00106AE61AD6924F00306B1
:1005300005F001050095334D06EB050CDCF808507D
:10054000A607360F07FA06F825EA0805DFF8B8808F
:10055000404503D14FF0000817E044E0DFF8AC80DD
:10056000404502D14FF001080FE0DFF8A48040457C
:1005700002D14FF0020808E0DFF89880404502D130
:100580004FF0030801E04FF0040808FA06F848EAC3
:100590000508CCF808804D68D9F80060ED024D469A
:1005A00001D5164300E096432E604D68DAF80060EE
:1005B000AD02554601D5164300E096432E604D68C6
:1005C000DBF80060AD035D4601D5164300E09643BD
:1005D0002E604D68DEF80060ED03754601D51643C8
:1005E00000E096432E60641C0D682A46E5407FF4C7
:1005F00031AFBDE8F88F0000080401400000111081
:10060000001002400000014000080140000C0140C1
:10061000001001400014014001488068704700004C
:10062000040000200248816802781144816070470C
:1006300004000020074810B5016841F01001016076
:10064000032000F067F80F2000F006F800F024F80F
:10065000002010BD0020024070B50D4D04464FF43F
:100660007A712878B1FBF0F00A490968B1FBF0F023
:1006700000F0CEFA48B9102C07D200222146501EB5
:1006800000F028F800206C6070BD012070BD0000F3
:1006900004000020100000200C4808B5816941F0DA
:1006A00001018161816901F001010091C16941F09D
:1006B0008051C161C06900F08050009004484168D9
:1006C00021F0E06141F00071416008BD001002407E
:1006D00000000140F0B40E4B1B680C46C3F302232C
:1006E000C3F10705042D00D90425191D072901D2DE
:1006F000002300E0DB1E012606FA05F1491E214019
:1007000099409E40761E16403143F0BC00F0F4BB89
:100710000CED00E0064900F0070208684FF6FF0301
:10072000184040EA0220034A104308607047000066
:100730000CED00E00000FA052DE9F0470F4605003A
:1007400061D0434E306800F00700B84209D23068EB
:1007500020F0070038433060306800F00700B842EE
:1007600051D128683B4C810712D5400703D56068FA
:1007700040F4E06060602878000703D5606840F4CA
:10078000605060606068A96820F0F0000843606015
:100790002878C00728D06868012810D0216802286E
:1007A00010D0890700292EDA616821F00301014386
:1007B0006160FFF731FF804641F288390DE0216822
:1007C0008903EFE78901EDE7FFF726FFA0EB0801BA
:1007D000494502D90320BDE8F0876068696800F0E8
:1007E0000C00B0EB810FEFD1306800F00700B84289
:1007F0000BD9306820F0070038433060306800F0D3
:100800000700B84201D00120E5E72878400705D568
:100810006068E96820F4E0600843606028780007B9
:1008200006D56068296920F4605040EAC100606024
:1008300000F038F86168084AC1F30311515CC84000
:100840000649086006480068FFF706FF0020C2E777
:100850000020024000100240D612000810000020C4
:10086000080000200448054900684968044AC1F3AB
:100870000221515CC8407047100000200010024067
:10088000E61200080448054900684968044AC1F3B3
:10089000C221515CC8407047100000200010024087
:1008A000E61200080E4A51680E4811F00C0313D0EE
:1008B000042B11D0082B0FD10B48C1F38343C9037C
:1008C000C05C0AD55168084AC1F34041921E515C90
:1008D000044A5043B0FBF1F0704704494843704765
:1008E0000010024000127A00C612000800093D0004
:1008F0002DE9F84F040070D02078C04DC00749D0D2
:100900006868C0F38100012807D06868C0F38100DF
:10091000022809D16868C00306D52868800339D544
:1009200060680028E7D035E06068B0F5803F0BD004
:1009300010B1B0F5A02F11D0286820F480302860C5
:10094000286820F4802002E0286840F48030286085
:10095000606890B1FFF760FE06460AE0286840F440
:1009600080202860F0E700BFFFF756FE801B642858
:1009700073D828688003F7D50CE0FFF74DFE0646D4
:1009800005E000BFFFF748FE801B6428F0D8286808
:100990008003F7D420789A4E80074FF001094FF07A
:1009A000000839D5686810F00C0F07D06868C0F3EC
:1009B0008100022809D16868C00306D4286880072E
:1009C00014D52069012808D110E02069B0B1C6F81B
:1009D0000090FFF721FE074605E00AE1FFF71CFE45
:1009E000C01B0228C4D828688007F7D52868616929
:1009F00020F0F80040EAC10028600DE0C6F8008051
:100A0000FFF70AFE074604E0FFF706FEC01B0228B8
:100A100023D828688007F7D4207800072CD5794898
:100A2000A169D9B1C0F80090FFF7F6FD074604E0D0
:100A3000FFF7F2FDC01B02280FD8686A8007F7D5C0
:100A400071484FF4FA510068B0FBF1F0009000BF1C
:100A50000098411E0091FAD20EE080E0C0F80080BC
:100A6000FFF7DAFD074604E0FFF7D6FDC01B0228BA
:100A700075D8686A8007F7D42078400760D5E869A0
:100A80000027C00008D4E86940F08050E861E869B8
:100A9000012700F0805000905C480168C90513D41C
:100AA0000168834641F480710160FFF7B5FD82461D
:100AB00006E000BFFFF7B0FDA0EB0A0064284ED8A7
:100AC000DBF80000C005F5D5E06801280AD008B1C0
:100AD000052813D0286A20F001002862286A20F037
:100AE000040002E0286A40F001002862E06841F258
:100AF000883B98B1FFF790FD82460BE0286A40F0F2
:100B000004002862EEE700BFFFF786FDA0EB0A01B4
:100B100059455AD8286A8007F6D50CE0FFF77CFDC6
:100B2000824605E0FFF778FDA0EB0A0159454CD855
:100B3000286A8007F6D41FB1E86920F08050E86188
:100B4000E06988B36968C1F38101022944D00228B1
:100B5000C6F8608004D0FFF75FFD044638E034E05B
:100B6000FFF75AFD074604E0FFF756FDC01B0228B9
:100B70002BD828688001F7D4206AB0F5803F05D1D2
:100B80006868A16820F4003008436860D4E908016F
:100B90000843696821F4741108436860C6F86090DE
:100BA000FFF73AFD044606E025E000BFFFF734FDFD
:100BB000001B022809D828688001F7D51BE000BF78
:100BC000FFF72AFD001B022802D90320BDE8F88F99
:100BD00028688001F4D40EE00128F7D06868226A02
:100BE00000F48031914204D1616A00F470108842AF
:100BF00001D00120EAE70020E8E7000000100240F1
:100C00000000424280044242100000200070004078
:100C100010B5401EB0F1807F01D3012010BD4FF010
:100C2000E02460610F21601700F066F90020A061E8
:100C300007202061002010BD70B5040004D094F896
:100C40004100002510B106E0012070BD84F840503D
:100C5000204600F023F8242084F841002068C16871
:100C600021F40051C160204600F0EAF820680169D3
:100C700021F4904101612068416921F02A0141611C
:100C80002068C16841F40051C1606564202084F887
:100C9000410084F842006563002070BD30B585B026
:100CA000002400940194029403940068144988423B
:100CB00024D11448816941F480418161816901F442
:100CC00080410491816941F00401816180690E4D88
:100CD00000F0040004904FF4007000900220019096
:100CE0000320039069462846FFF7A6FB2815CDE9A7
:100CF0000004694628460294FFF79EFB05B030BD0C
:100D0000003801400010024000080140FEE70000EA
:100D1000094808B5816941F020018161816901F0CC
:100D200020010091816941F004018161806900F036
:100D30000400009008BD0000001002400C4810B5EF
:100D40000A4901604FF4E1314160002181600C22C9
:100D5000C160C0E904128161C161FFF76DFF002825
:100D600003D0BDE81040FFF753BB10BD0038014071
:100D700018000020FEE7FEE770477047FFF752BCFF
:100D80007047FEE7F8B50E46074600240CE000BFAA
:100D900007EB84050023E85C00F018F85B1CDBB26D
:100DA000042BF8D3641CE4B2B442F1D306A00023B0
:100DB00000686C460090E05C00F008F85B1CDBB259
:100DC000042BF8D3F8BD00000000807F03490968B8
:100DD0000A68D2431206FBD448607047180000200E
:100DE00030B58FB028216846FFF7A3F914210AA86F
:100DF000FFF79FF901210804CDE9001000240294B7
:100E000002250491CDE907504FF4E010099068469F
:100E1000FFF76EFD08B172B6FEE70F20CDE90A05B7
:100E20004FF48060CDE90C4002210AA80E94FFF730
:100E300083FC002801D072B6FEE70FB030BD000081
:100E400070B5044600680169E26821F4405111431D
:100E500001612169A0680843616908432168CA6883
:100E600041F20C639A430243CA6020684169A26957
:100E700021F44071114341611E492068884202D12A
:100E8000FFF700FD01E0FFF7EDFC00EBC00101EB17
:100E90000012606864218000B2FBF0F3B3FBF1F351
:100EA0006FF018067343B2FBF0F5B2FBF0F605EBFA
:100EB0008305322303EB0515B5FBF1F5B6FBF1F61F
:100EC00005F0F00505EB0615B2FBF0F6B2FBF0F00D
:100ED000B0FBF1F06FF01802504306EB800003EB1B
:100EE0000010B0FBF1F0216800F00F00284488608A
:100EF00070BD0000003801400907090E002804DB1E
:100F000000F1E02080F80014704700F00F0000F1BD
:100F1000E02080F8141D70474100080218BF04202B
:100F20000A0E18BF40F001004FF07F4232EA010183
:100F300008BF40F00200012808BF052070470121CA
:100F4000FFF75AB900210846FFF714BA6FF05E01A7
:100F50000807FFF751B900002DE9F04D0D46144682
:100F60004FF07F41B1EB440F9EBF4FF0FF3129603E
:100F7000BDE8F08D4FF0004040EA0421C4F3C750B3
:100F8000783810F01F024A4B4FEA601CC2F120066D
:100F90007B44C4F3C750A0F178004FEA601003EB24
:100FA000800053F82C3008BFD0E901C612D0D0F829
:100FB00004C093402CFA06F73B4387680CFA02FC06
:100FC00027FA06F8C06807FA02F2F0404CEA080C6B
:100FD00042EA0006A3FB0132ACFB01C0A6FB0161A3
:100FE00001EB0C068E4234BF4FF0010C4FF0000CA9
:100FF000C1186144BCF1000F02D0814202D903E064
:10100000814201D2012000E00020104400F12002C2
:101010004FEA92188006CA0C40EA42304F03C5F8E6
:101020000080FFF7E5F982463846FFF7EAF96FF0EE
:101030001201FFF7E1F807463046FFF7E2F96FF0DB
:101040002501FFF7D9F8834639465046FFF77CF86B
:101050005946FFF779F800F500666FF30B06514625
:101060003046FFF7C3F83946FFF7C0F85946FFF797
:10107000C0F81049FFF703F907460F493046FFF75C
:10108000FEF83946FFF760F807460C493046FFF78F
:10109000F6F83946FFF758F814F0004F08BFBDE8DE
:1010A000F08DC8F1805180F000402960BDE8F08DDE
:1010B0005C030000DB0FC92F22AAFD290000C92F05
:1010C00002E008C8121F08C1002AFAD17047704711
:1010D000002001E001C1121F002AFBD1704700006F
:1010E0000149086070470000140000201CB5FFF79C
:1010F000A1FAFFF775FEFFF70BFEFFF71FFE0D4C81
:101100000D4D206800F01AF8009001212068FFF7CB
:1011100073F800F013F8019002216846FFF732FEE1
:1011200029462068FFF710F820600A20FFF772F9BF
:10113000E7E70000000000200AD7233C2DE9F84330
:101140000446024652486946B0EB420F09D94FF0B7
:10115000E640B0EB420F94BF00204FF0FF3000900C
:1011600030E04C4B22F00040834271D94A4920467E
:10117000FFF785F8FFF7B5F88046FFF7D0F800F0E5
:101180000300009045494046FFF779F80546444979
:101190004046FFF774F8064642494046FFF76FF8AD
:1011A000074641494046FFF76AF82146FFF721F814
:1011B0003946FFF71BF83146FFF718F82946FFF7C5
:1011C00015F804462546009C002C45DB294614F002
:1011D000010F08461ED0FFF752F805463349FFF7C6
:1011E0004EF83349FEF7B0FF2946FFF748F831497A
:1011F000FEF7AAFF2946FFF742F84FF07E51FEF7AF
:10120000A3FF14F0020F08BFBDE8F88380F0004090
:10121000BDE8F883FFF733F806462749FFF72FF8B4
:101220002649FEF7E6FF3146FFF729F82449FEF785
:101230008BFF3146FFF723F82946FFF720F82946B0
:10124000FEF782FF14F0020FE0D1BDE8F883FFE75C
:101250001046FFF781FEB4E76800B0F17F4F09D276
:101260002846FFF759FE042808BFFFF76FFE2846FF
:10127000BDE8F88306D10120FFF732FFBDE8F8434F
:10128000FFF760BE2846BDE8F843FFF758BE0000F0
:10129000B61F927E490E494683F9223F1A61342CCB
:1012A0000020A23300A0FD390000C93FB93AB2BA0C
:1012B000CA9F2A3DDDFFFFBE336D4C39DA82083C00
:1012C000A0AA2ABE010202030405060708090A0BA8
:1012D0000C0D0E0F101000000000000000000102B5
:1012E00003040607080900000000010203040000CF
:1012F000000000006E83F9A22915444ED15727FC47
:10130000C0DD34F5999562DB4190433CAB6351FEFF
:10131000301300080000002018000000C010000872
:10132000481300081800002048040000D0100008EE
:10133000000000000100000010000000000000009C
:0813400000127A000000000019
:04000005080000ED02
:00000001FF
