:020000040800F2
:10000000C818002021020008330F0008D50D000891
:10001000310F0008C303000887110008000000002A
:10002000000000000000000000000000890100083E
:10003000C503000800000000CD010008950F00086E
:100040003B0200083B0200083B0200083B0200089C
:100050003B0200083B020008C70300083B020008FF
:100060003B0200083B0200083B0200083B0200087C
:100070003B0200083B0200083B0200083B0200086C
:100080003B0200083B0200083B0200083B0200085C
:100090003B0200083B0200083B0200083B0200084C
:1000A0003B0200083B0200083B0200083B0200083C
:1000B0003B0200083B0200083B0200083B0200082C
:1000C0003B0200083B0200083B0200083B0200081C
:1000D0003B0200083B0200083B0200083B0200080C
:1000E0003B0200083B0200083B02000800F002F857
:1000F00000F03AF80AA090E8000C82448344AAF188
:100100000107DA4501D100F02FF8AFF2090EBAE885
:100110000F0013F0010F18BFFB1A43F0010318473B
:100120003C2200005C220000103A24BF78C878C14D
:10013000FAD8520724BF30C830C144BF04680C60ED
:10014000704700000023002400250026103A28BF35
:1001500078C1FBD8520728BF30C148BF0B60704739
:100160001FB51FBD10B510BD00F0F5F81146FFF723
:10017000F7FF01F019F800F013F903B4FFF7F2FFED
:1001800003BC00F017F90000224B19680868B0E8BA
:10019000F00F80F30988BFF36F8F4FF0000080F3FA
:1001A00011884EF00D0E70470000000006480068F0
:1001B000006880F3088862B661B6BFF34F8FBFF363
:1001C0006F8F00DF00BF00BF08ED00E0EFF3098094
:1001D000BFF36F8F0F4B1A6820E9F00F106008B55E
:1001E0004FF0500080F31188BFF34F8FBFF36F8F34
:1001F00001F086FC4FF0000080F31188BDE8084054
:1002000019680868B0E8F00F80F30988BFF36F8FB2
:10021000704700BF1C000020EFF30580704700000E
:100220000948804709480047FEE7FEE7FEE7FEE78A
:10023000FEE7FEE7FEE7FEE7FEE7FEE704480549C6
:10024000054A064B704700000B100008ED0000083F
:10025000C8120020C8180020C8140020C8140020AC
:1002600010B5431C02E010F8011B71B18107FAD1EF
:100270004FF0013202C88C1A8C4314EAC211F9D033
:10028000C01A0A0603D0C01E10BDC01A10BD0A0451
:1002900001D0801E10BD0902FCD0401E10BD10B55B
:1002A000203AC0F00B80B1E81850203AA0E818506E
:1002B000B1E81850A0E81850BFF4F5AF5FEA027C2F
:1002C00024BFB1E81850A0E8185044BF18C918C09E
:1002D000BDE810405FEA827C24BF51F8043B40F83F
:1002E000043B08BF7047D20728BF31F8023B48BF24
:1002F00011F8012B28BF20F8023B48BF00F8012B62
:1003000070474FF0000200B51346944696462039D8
:1003100022BFA0E80C50A0E80C50B1F12001BFF4BE
:10032000F7AF090728BFA0E80C5048BF0CC05DF824
:1003300004EB890028BF40F8042B08BF704748BF72
:1003400020F8022B11F0804F18BF00F8012B7047E6
:10035000704770477047754600F028F8AE460500B4
:100360006946534620F00700854618B020B5FFF7D0
:1003700065FFBDE820404FF000064FF000074FF04A
:1003800000084FF0000B21F00701AC46ACE8C009B3
:10039000ACE8C009ACE8C009ACE8C0098D467047BC
:1003A0000446AFF300802046FFF7E7FE00487047A1
:1003B0006412002001491820ABBEFEE726000200AF
:1003C0007047FEE77047012000F01CB872B6FEE7E8
:1003D00008B50021009101280FD10848694600683E
:1003E00001F08CFC0098002807D005494FF08050A0
:1003F0000860BFF34F8FBFF36F8F08BD0000002070
:1004000004ED00E0044910B50A68024202D0086019
:10041000FFF7DEFF10BD0000140401402DE9F84F86
:10042000DFF8B8910024A9F1040B23460F2709F146
:10043000040AABF1040EC9E00125A5402A40AA42F6
:100440007DD1674ED1F804C0ACEB0608B44532D07C
:1004500014DCBCF1030F3AD009DCBCF1000F2AD048
:10046000BCF1010F1CD0BCF1020F31D11DE0BCF179
:10047000110F17D0BCF1120F2AD119E0B8F5881F5F
:1004800019D006DCB8F5803F15D0B8F5801F1FD114
:1004900011E0B8F5001F0ED0B8F5041F18D10AE01E
:1004A000CB6815E0CB681B1D12E0CB6808330FE06A
:1004B000CB680C330CE08B682BB1012B4FF0080399
:1004C00003D0456104E0042302E0056100E000235D
:1004D000FF2A01D8064601E000F104064FEA840530
:1004E00001D9A5F12005D6F8008007FA05FC28EA15
:1004F0000C0803FA05F548EA0508C6F800804D68BF
:10050000ED0062D5374DAE6946F00106AE61AD69CA
:1005100024F0030605F001050095334D06EB050CAC
:10052000DCF80850A607360F07FA06F825EA080592
:10053000DFF8B880404503D14FF0000817E044E0F1
:10054000DFF8AC80404502D14FF001080FE0DFF842
:10055000A480404502D14FF0020808E0DFF89880FF
:10056000404502D14FF0030801E04FF0040808FABB
:1005700006F848EA0508CCF808804D68D9F800600C
:10058000ED024D4601D5164300E096432E604D68BE
:10059000DAF80060AD02554601D5164300E09643F7
:1005A0002E604D68DBF80060AD035D4601D5164353
:1005B00000E096432E604D68DEF80060ED0375465E
:1005C00001D5164300E096432E60641C0D682A4650
:1005D000E5407FF431AFBDE8F88F0000080401402A
:1005E000000011100010024000000140000801400E
:1005F000000C01400010014000140140C26821EAD3
:1006000002030A4043EA0241016170470AB10161F5
:1006100070470904FBE7000001488068704700004C
:100620000C00002002488168027811448160704704
:100630000C000020074810B5016841F0100101606E
:10064000032000F07BF80F2000F006F800F024F8FB
:10065000002010BD0020024070B50D4D04464FF43F
:100660007A712878B1FBF0F00A490968B1FBF0F023
:1006700000F0E2FA48B9102C07D200222146501EA1
:1006800000F03CF800206C6070BD012070BD0000DF
:100690000C000020180000200F4808B5816941F0C7
:1006A00001018161816901F001010091C16941F09D
:1006B0008051C161C069002200F0805000900F217C
:1006C000901E00F01BF80548416821F0E06141F000
:1006D0000071416008BD00000010024000000140B0
:1006E000002809DB00F01F02012191404009800031
:1006F00000F1E020C0F8001170470000F0B40E4B8C
:100700001B680C46C3F30223C3F10705042D00D96F
:100710000425191D072901D2002300E0DB1E012654
:1007200006FA05F1491E214099409E40761E16406A
:100730003143F0BC00F028BD0CED00E0064900F0AC
:10074000070208684FF6FF03184040EA0220034AF8
:1007500010430860704700000CED00E00000FA054F
:100760002DE9F0470F46050061D0434E306800F098
:100770000700B84209D2306820F0070038433060E3
:10078000306800F00700B84251D128683B4C81071F
:1007900012D5400703D5606840F4E06060602878B7
:1007A000000703D5606840F4605060606068A96825
:1007B00020F0F000084360602878C00728D06868FF
:1007C000012810D02168022810D0890700292EDACC
:1007D000616821F0030101436160FFF71DFF80465E
:1007E00041F288390DE021688903EFE78901EDE7DF
:1007F000FFF712FFA0EB0801494502D90320BDE82D
:10080000F0876068696800F00C00B0EB810FEFD1F1
:10081000306800F00700B8420BD9306820F00700BC
:1008200038433060306800F00700B84201D0012042
:10083000E5E72878400705D56068E96820F4E060BE
:10084000084360602878000706D56068296920F4AD
:10085000605040EAC100606000F038F86168084A02
:10086000C1F30311515CC84006490860064800689E
:10087000FFF7F2FE0020C2E7002002400010024015
:100880002A23000818000020100000200448054911
:1008900000684968044AC1F30221515CC8407047AE
:1008A00018000020001002403A23000804480549BF
:1008B00000684968044AC1F3C221515CC8407047CE
:1008C00018000020001002403A2300080E4A516828
:1008D0000E4801F00C03042B11D0082B0FD10C484B
:1008E000C1F38343C903C05C0AD55168084AC1F308
:1008F0004041921E515C054A5043B0FBF1F07047F5
:1009000004494843704700000010024000127A007A
:100910001A23000800093D002DE9F84F040070D0AB
:100920002078C04DC00749D06868C0F38100012815
:1009300007D06868C0F38100022809D16868C00345
:1009400006D52868800339D560680028E7D035E0EF
:100950006068B0F5803F0BD010B1B0F5A02F11D07A
:10096000286820F480302860286820F4802002E085
:10097000286840F480302860606890B1FFF74CFE32
:1009800006460AE0286840F480202860F0E700BFAF
:10099000FFF742FE801B642873D828688003F7D5D0
:1009A0000CE0FFF739FE064605E000BFFFF734FE16
:1009B000801B6428F0D828688003F7D420789A4EEA
:1009C00080074FF001094FF0000839D5686810F032
:1009D0000C0F07D06868C0F38100022809D168684D
:1009E000C00306D42868800714D52069012808D1DF
:1009F00010E02069B0B1C6F80090FFF70DFE074681
:100A000005E00AE1FFF708FEC01B0228C4D82868E9
:100A10008007F7D52868616920F0F80040EAC10036
:100A200028600DE0C6F80080FFF7F6FD074604E0F9
:100A3000FFF7F2FDC01B022823D828688007F7D4EF
:100A4000207800072CD57948A169D9B1C0F8009069
:100A5000FFF7E2FD074604E0FFF7DEFDC01B0228BA
:100A60000FD8686A8007F7D571484FF4FA510068CB
:100A7000B0FBF1F0009000BF0098411E0091FAD247
:100A80000EE080E0C0F80080FFF7C6FD074604E0F6
:100A9000FFF7C2FDC01B022875D8686A8007F7D42B
:100AA0002078400760D5E8690027C00008D4E869CD
:100AB00040F08050E861E869012700F08050009024
:100AC0005C480168C90513D40168834641F480710C
:100AD0000160FFF7A1FD824606E000BFFFF79CFD25
:100AE000A0EB0A0064284ED8DBF80000C005F5D55D
:100AF000E06801280AD008B1052813D0286A20F040
:100B000001002862286A20F0040002E0286A40F010
:100B100001002862E06841F2883B98B1FFF77CFD54
:100B200082460BE0286A40F004002862EEE700BF2E
:100B3000FFF772FDA0EB0A0159455AD8286A8007D1
:100B4000F6D50CE0FFF768FD824605E0FFF764FD8F
:100B5000A0EB0A0159454CD8286A8007F6D41FB18A
:100B6000E86920F08050E861E06988B36968C1F302
:100B70008101022944D00228C6F8608004D0FFF722
:100B80004BFD044638E034E0FFF746FD074604E03D
:100B9000FFF742FDC01B02282BD828688001F7D43C
:100BA000206AB0F5803F05D16868A16820F4003064
:100BB00008436860D4E908010843696821F47411A6
:100BC00008436860C6F86090FFF726FD044606E01B
:100BD00025E000BFFFF720FD001B022809D8286888
:100BE0008001F7D51BE000BFFFF716FD001B0228B0
:100BF00002D90320BDE8F88F28688001F4D40EE004
:100C00000128F7D06868226A00F48031914204D14B
:100C1000616A00F47010884201D00120EAE70020E8
:100C2000E8E7000000100240000042428004424217
:100C3000180000200070004010B5401EB0F1807F09
:100C400001D3012010BD4FF0E02460610F21601737
:100C500000F09AFA0020A06107202061002010BD5A
:100C600070B5040004D094F84100002510B106E0EE
:100C7000012070BD84F84050204600F023F8242065
:100C800084F841002068C16821F40051C160204609
:100C900000F0E4F92068016921F4904101612068C5
:100CA000416921F02A0141612068C16841F4005185
:100CB000C1606564202084F8410084F842006563C7
:100CC000002070BD30B585B00024009401940294DA
:100CD000039400681449884224D11448816941F47E
:100CE00080418161816901F480410491816941F011
:100CF0000401816180690E4D00F0040004904FF4FE
:100D0000007000900220019003200390694628465D
:100D1000FFF784FB2815CDE90004694628460294B4
:100D2000FFF77CFB05B030BD0038014000100240E9
:100D3000000801402DE9F843044690F84100984628
:100D400016460D46202802D00220BDE8F88385B162
:100D50007EB100206064212084F84100FFF75CFC34
:100D6000A6848146E684A0682027B0F5805F02D083
:100D700003E00120E9E7206910B12E4600250EE0CE
:100D800000260CE08021204600F0C4F9A8B9C6B1C5
:100D900016F8010B21684860E08C401EE084E08C6E
:100DA0004B464FF00002CDF800800028EAD14FF00A
:100DB0004001204600F0AEF940B184F841700320B4
:100DC000C3E735F8020BC0F30800E3E784F841708D
:100DD0000020BAE7FEE7000010B58EB00322002124
:100DE000012000F025FF134C2060B0B11C221249F5
:100DF0006846FFF754FA0021684600F009FA0E49E8
:100E000060601C221C3107A8FFF749FA002107A8DF
:100E100000F0FEF9A0600EB010BD08A42046FFF758
:100E20001FFA82B24FF0FF3321460C48FFF782FFD2
:100E3000FEE7000000000020E022000853656D611D
:100E400070686F7265206372656174696F6E206689
:100E500061696C6564210D0A000000002C0500200A
:100E600070B586B000252048009501950295039540
:100E7000816941F010018161816901F010010491E3
:100E8000816941F020018161816901F020010491B3
:100E9000816941F0040181618069012200F0040050
:100EA000124E5403049021463046FFF7AFFB022058
:100EB000CDE9025000940124694601943046FFF7C1
:100EC000ADFA0B486946CDE900400A480294FFF7A5
:100ED000A5FA002205210620FFF710FC0620FFF7E7
:100EE000FFFB06B070BD0000001002400010014082
:100EF00000002110000801400C4810B50A490160AB
:100F00004FF4E1314160002181600C22C160C0E9F1
:100F100004128161C161FFF7A3FE002803D0BDE880
:100F20001040FFF753BA10BD003801402C050020D7
:100F3000FEE7FEE7012000F05FF9FBE70D4EDFF86A
:100F400038804FF0FF354FF400572946306800F0E5
:100F500023FF0128F9D139464046FFF74FFB07A48C
:100F60002046FFF77DF982B22B4621460848FFF75D
:100F7000E1FEEAE7000000200010014042757474B1
:100F80006F6E2050726573736564210D0A00000056
:100F90002C05002010B5FFF745FB01F04BF80128A8
:100FA00003D0BDE8104000F02DBE10BD30B58FB0AD
:100FB00028216846FFF7A5F914210AA8FFF7A1F92F
:100FC00001210804CDE900100024029402250491B7
:100FD000CDE907504FF4E01009906846FFF79CFCFC
:100FE00008B172B6FEE70F20CDE90A054FF4806024
:100FF000CDE90C4002210AA80E94FFF7B1FB0028AE
:1010000001D072B6FEE70FB030BD704701680C31F9
:1010100051E8002F22F4907241E80023002BF5D113
:101020000168143151E8002F22F0010241E8002349
:10103000002BF5D1016B012909D101680C3151E870
:10104000002F22F0100241E80023002BF5D12021CF
:1010500080F84210002101637047000070B504461B
:1010600000680169E26821F440511143016121697E
:10107000A0680843616908432168CA6841F20C63AB
:101080009A430243CA6020684169A26921F4407111
:10109000114341611E492068884202D1FFF706FCD6
:1010A00001E0FFF7F3FB00EBC00101EB0012606809
:1010B00064218000B2FBF0F3B3FBF1F36FF018068C
:1010C0007343B2FBF0F5B2FBF0F605EB8305322378
:1010D00003EB0515B5FBF1F5B6FBF1F605F0F005F0
:1010E00005EB0615B2FBF0F6B2FBF0F0B0FBF1F049
:1010F0006FF01802504306EB800003EB0010B0FBCA
:10110000F1F0216800F00F002844886070BD0000F5
:10111000003801402DE9F843984617460D4604462D
:10112000089E24E0701C22D0FFF776FAA0EB08009E
:10113000B0421AD8CEB12068C168490717D5802DB2
:1011400015D0402D13D00168C94309070FD4016899
:101150000025406800902046FFF758FF0820606493
:1011600084F840500120BDE8F8830320FBE72068A5
:10117000006835EA000004D00020B842D2D0002038
:10118000F1E70120F9E7FEE70907090E002804DB73
:1011900000F1E02080F80014704700F00F0000F12B
:1011A000E02080F8141D7047FFF744FAFFF7FEFEB9
:1011B000FFF756FEFFF7A0FE07A42046FFF750F802
:1011C00082B24FF0FF3321460748FFF7B3FDFFF728
:1011D00003FE00F018F8FEE7554152542074657381
:1011E00074204F4B0D0A00002C0500200146002002
:1011F000842900D0C81C704710B500B9012000F048
:10120000A5FB002010BD10B500F03CFC002010BD77
:101210007FB50D4604464169B0F9080081B1A16966
:1012200071B1FFF7E3FFD4E905128DE80700D4E9B7
:1012300000102B46226900F0D2FE039004B070BD6E
:10124000FFF7D4FF03A9CDE90001208A2B4682B223
:10125000D4E9001000F096FE012801D00020EDE74F
:101260000398EBE72DE9F041184C0F460546E66878
:101270002068001D00F078FA38B9206890F82C102A
:1012800001208840216981432161681C07D137B161
:101290002168BDE8F0410E48091D00F0A9BA206898
:1012A0003544B5424560216805D2A06BBDE8F041E8
:1012B000091D00F085BA606B091D00F081FAA06A73
:1012C000854200D2A562BDE8F08100001C0000202C
:1012D000500600202DE9F041054600F095FA2E4C0D
:1012E000A068401CA06020682C4F10B1606940B31A
:1012F0002DE02560A068012829D1002606EB860094
:1013000007EB800000F04EFA761C072EF6D3234838
:101310008C3000F047FA2148A03000F043FA1F4813
:10132000B43000F03FFA1D48C83000F03BFA1B48CB
:10133000DC3000F037FA19488C3060631430A06359
:1013400005E02068E96AC06A884200D82560606AC2
:10135000401C6062E96A01202269884010432061D4
:1013600001EB810007EB8000291D00F041FA00F03D
:101370006BFA606900280CD02068E96AC06A88426C
:1013800007D207494FF080500860BFF34F8FBFF37B
:101390006F8FBDE8F08100001C0000207405002064
:1013A00004ED00E010B5044690F8510058B1012852
:1013B0000CD002280FD0502080F31188BFF34F8F3C
:1013C000BFF36F8FFEE7206B00F052FA2046BDE8B6
:1013D000104000F04DBA10BD10484FF44061420774
:1013E00006D0C01D0D4920F00700411AC1F540612B
:1013F0000B4A00230144C2E900030839183A21F0DE
:10140000070111604B600B600B1AC0E90013936079
:101410004FF00040536050617047000064060020A8
:1014200070000020144E154CA6F1C8074FF08058EC
:10143000DFF84C9012E000BF00F0E6F9F068C568F4
:10144000281D00F091F9A068401EA0606068401E51
:10145000606000F0F9F92846FFF7A4FF60680028F3
:10146000EAD138680128F9D9C9F80080BFF34F8F55
:10147000BFF36F8FF2E700003C0600201C00002045
:1014800004ED00E00346009829B10260C0E90F3185
:10149000012100F0EFBB0060F8E72DE9F0479A4624
:1014A000DDE9098481466FF00303206B03EB8202C0
:1014B0001044089E20F00707780707D0502080F3DB
:1014C0001188BFF34F8FBFF36F8FFEE7002561B127
:1014D000002023180A5C83F834200A5C12B1401CF7
:1014E0001028F6D384F8435001E084F83450072ED6
:1014F00000D30626E662C4E91165201D00F05DF9FF
:1015000004F1180000F059F92461C6F10700646283
:10151000A061E56484F8505052464946384600F0D0
:1015200011F92060B8F1000F01D0C8F80040BDE803
:10153000F087000030B5114900E011460A68824288
:10154000FBD34B685C18844203D140681844486060
:10155000084643681C18944209D1084C183C24687A
:10156000A24209D052681A4442600A6812680260B6
:10157000814200D0086030BD0460F9E770000020AF
:1015800010B5044600F040F9A06B28B15FF00004EC
:1015900000F05AF9204610BD0124F9E70648416BD6
:1015A000096829B1416BC968C96849688162704797
:1015B0004FF0FF31FAE700001C00002008484068A7
:1015C000401C4FF0500080F3118804D0BFF34F8FC0
:1015D000BFF36F8FFEE7BFF34F8FBFF36F8FFEE751
:1015E000780000202DE9F041044600F00DF994F94F
:1015F000455004F1240609E0606A48B1304600F025
:10160000D3FD08B100F0D0F96D1E6DB2002DF3DCF2
:101610004FF0FF3684F8456000F016F900F0F4F85A
:1016200094F9445004F1100709E0206948B13846A4
:1016300000F0BAFD08B100F0B7F96D1E6DB2002DD3
:10164000F3DC84F84460BDE8F04100F0FDB8000030
:101650002DE9F0410546002700F04AFA324E306885
:1016600008B9FFF7B9FE706905424ED1C5B3083518
:1016700068070ED005F00700C0F1080005446807B0
:1016800007D0502080F31188BFF34F8FBFF36F8FC7
:10169000FEE72DB37068854237D8234818300146DD
:1016A0000C6801E020460C466168A94202D221681C
:1016B0000029F7D131688C4227D007682168016082
:1016C00060680837411B10290FD96019420708D0FC
:1016D000502080F31188BFF34F8FBFF36F8FFEE769
:1016E00013E041606560FFF725FF61687068401A8C
:1016F0007060B268904200D2B0607069014300200F
:10170000C4E90001F068401CF06000F087FD780734
:1017100007D0502080F31188BFF34F8FBFF36F8F36
:10172000FEE73846BDE8F08158000020044908680B
:1017300018B10868826C521C826408687047000007
:101740001C00002010B5031F4FF080741C601B1F8D
:1017500021F001011960191F024B0B601439403848
:101760000A6010BDBD150008D0E9013201699A6018
:10177000D0E901235A604A68824201D182684A60F6
:10178000002202610868401E086008687047000077
:10179000034B036003F15400086080201060704721
:1017A000D802002000F108014FF0FF32C0E9011219
:1017B000C160016100210160704700210161704733
:1017C00030B50B685A1C02D000F1080202E0026931
:1017D00004E02246546825689D42FAD953684B605C
:1017E00099608A60516008610168491C016030BDE0
:1017F00042684A6093688B609368596091600861A1
:101800000168491C01607047502080F31188BFF3C4
:101810004F8FBFF36F8F0A494868401C486001280A
:101820000CD10848006810F0FF0F07D0502080F35B
:101830001188BFF34F8FBFF36F8FFEE77047000033
:101840007800002004ED00E00849486828B1401EF7
:10185000486001D180F311887047502080F31188CF
:10186000BFF34F8FBFF36F8FFEE7000078000020BB
:1018700070B500282AD0164DA0F108046068696987
:10188000084207D1502080F31188BFF34F8FBFF378
:101890006F8FFEE722683AB1502080F31188BFF3C2
:1018A0004F8FBFF36F8FFEE78843606000F020F931
:1018B00060686968084468602046FFF73BFE286955
:1018C000401C2861BDE8704000F0A8BC70BD00005D
:1018D000580000204FF0E02000210161816105499E
:1018E0004FF47A720968B1FBF2F1491E4161072198
:1018F000016170471800002010B5FEF78DFC1149FA
:1019000010280ED300F1E02090F8F0030A789042FE
:1019100007D2502080F31188BFF34F8FBFF36F8F32
:10192000FEE709480068896800F4E060884207D94A
:10193000502080F31188BFF34F8FBFF36F8FFEE706
:1019400010BD0000780000200CED00E010B5020092
:1019500014D00F48006B38B1502080F31188BFF3CA
:101960004F8FBFF36F8FFEE700F0C2F800211046E3
:10197000FFF778FC00F052FC002807D105494FF032
:1019800080500860BFF34F8FBFF36F8F10BD000012
:101990001C00002004ED00E002490A6A0260C968E8
:1019A000416070471C00002001490120C861704758
:1019B0001C00002010B50C4650B1094909681831C7
:1019C000FFF7FEFE2046BDE810400121FFF74ABCAC
:1019D000502080F31188BFF34F8FBFF36F8FFEE766
:1019E0001C00002070B5040047D0A26CA2B1606C4E
:1019F000884200D30146E06A88423ED0012A3CD1A9
:101A00001E4D2A6894420FD1502080F31188BFF3F5
:101A10004F8FBFF36F8FFEE7502080F31188BFF325
:101A20004F8FBFF36F8FFEE7E162A269002A02DBEE
:101A3000C1F10701A161124E00EB8000616906EB64
:101A40008000814219D1201DFFF78EFE012130B99F
:101A500094F82C002A6901FA00F082432A61E06AB6
:101A60002A6981401143296100EB800006EB800068
:101A7000211DBDE87040FFF7BBBE70BD1C000020FB
:101A80007405002010B586B00024039405AA04A9AB
:101A900003A80494FFF77CFEDDE903010094CDE97F
:101AA000011000230EA11048059A00F098FA0F4982
:101AB0000028C86211D0502080F31188BFF34F8FE7
:101AC000BFF36F8F4FF0FF30886201204861CC6018
:101AD00006B0BDE8104000F041B806B010BD0000EF
:101AE00049444C4500000000251400081C0000205B
:101AF0000248016B491C0163704700001C00002074
:101B00001448016B11B10121C16170470021C1610D
:101B10000169B1FA81F1C1F11F0101EB81020E49A6
:101B200051F822306BB101EB820101F108034A68E0
:101B300052684A609A4201D152684A60D168016095
:101B40007047502080F31188BFF34F8FBFF36F8F22
:101B5000FEE700001C000020740500201CB526498B
:101B600008780190FF20087008788DF800009DF833
:101B700000009DF8002000F0F000904207D05020B7
:101B800080F31188BFF34F8FBFF36F8FFEE79DF88F
:101B900000001A4C00F0500020700720A06005E003
:101BA0009DF8002052008DF80020401E9DF8002076
:101BB0001206F5D4A060032807D0502080F31188C6
:101BC000BFF34F8FBFF36F8FFEE74FF44070A060FD
:101BD000019808700A48016841F4700101600168C9
:101BE00041F070410160FFF775FE00206060FEF774
:101BF000DDFA00201CBD000000E400E078000020B9
:101C000020ED00E010B5502080F31188BFF34F8F16
:101C1000BFF36F8F00F01CFA18B104494FF08050E9
:101C20000860002080F3118810BD000004ED00E082
:101C3000F8B517460E46050013D005FB06F04830F0
:101C4000FFF706FD04000AD0002084F8460004F1E6
:101C500048023B46314628460094FFF713FC2046D5
:101C6000F8BD502080F31188BFF34F8FBFF36F8F03
:101C7000FEE7000070B50D46040025D0FFF7C4FD57
:101C8000D4E90F20216802FB0011A1600021A163AB
:101C9000216861600A46D4E90F01401E00FB012162
:101CA000E16021464FF0FF3001F8440F487004F125
:101CB00010008DB1FFF776FD04F12400FFF772FDEF
:101CC000FFF7C2FD012070BD502080F31188BFF3E3
:101CD0004F8FBFF36F8FFEE721690029F0D000F02E
:101CE00063FA0028ECD004494FF080500860BFF33D
:101CF0004F8FBFF36F8FE3E704ED00E070B50E4642
:101D0000040009D0206C78B1502080F31188BFF313
:101D10004F8FBFF36F8FFEE7502080F31188BFF322
:101D20004F8FBFF36F8FFEE7206848B9A06838B1C6
:101D3000502080F31188BFF34F8FBFF36F8FFEE702
:101D4000FFF7DAFD5020EFF3118580F31188BFF320
:101D50004F8FBFF36F8FA16BE06B884218D994F956
:101D60004500491CA163411C04D0401C84F8450077
:101D700001200EE0606A0028FAD004F1240000F08F
:101D800013FA0028F4D0002EF2D001203060EFE7E3
:101D9000002085F3118870BD2DE9F343002683B040
:101DA0000400354609D0206C78B1502080F31188AA
:101DB000BFF34F8FBFF36F8FFEE7502080F3118882
:101DC000BFF34F8FBFF36F8FFEE700F033F9DFF8FB
:101DD0003C814FF000094FF0805748B9049838B162
:101DE000502080F31188BFF34F8FBFF36F8FFEE752
:101DF000FFF70AFDA06BC8B1401EA063206810B9B0
:101E0000FFF794FCA060206950B104F1100000F0CD
:101E1000CBF928B1C8F80070BFF34F8FBFF36F8FB5
:101E2000FFF712FD012005B0BDE8F083049808B16A
:101E300066B10FE03DB1502080F31188BFF34F8FA2
:101E4000BFF36F8FFEE7FFF7FFFC5DE06846FFF72B
:101E5000A3FD0126FFF7F8FCFFF74AFEFFF7D4FCCD
:101E600094F94400401C01D184F8449094F9450051
:101E7000401C01D184F84590FFF7E6FC04A96846B0
:101E800000F046F80028204612D0FFF7ABFB00F028
:101E9000C5F92046FFF774FB0028A9D09DB3FFF7D2
:101EA000B3FC606A50B3206B0068C0F1070126E004
:101EB000FFF766FBE0B1206838B9FFF7A5FCA06822
:101EC00000F02CF90546FFF7BFFC04F1240004994B
:101ED000FFF770FD2046FFF785FB00F09FF9002813
:101EE00086D1C8F80070BFF34F8FBFF36F8F7FE7C5
:101EF0002046FFF777FB00F091F979E70021A06811
:101F0000FFF770FD9FE7FFE700208CE704ED00E09E
:101F10002DE9F0410C46050011D0C4B1FFF774FC67
:101F2000174BDA686E682068911B471C17D02F6822
:101F30001B6A9F4219D0964217D8012410E0502006
:101F400080F31188BFF34F8FBFF36F8FFEE75020F0
:101F500080F31188BFF34F8FBFF36F8FFEE700242C
:101F6000FFF772FC2046BDE8F081884205D9401A8F
:101F700020602846FFF710FDF1E700202060DCE735
:101F80001C0000202DE9FF5F8346DDE90E8799469E
:101F900016468A469000FFF75BFB05001CD05420D4
:101FA000FFF756FB040014D00020256384F851008D
:101FB000CDE90240CDE900874B46324651465846AE
:101FC000FFF76BFA2046FFF785F9012004B0BDE862
:101FD000F09F2846FFF74CFC4FF0FF30F6E7F0B5D6
:101FE00085B0DDE90B640A9DA6B1DCB154270097EA
:101FF0002663022684F85160002604AFCDE902462C
:10200000CDE90057FFF749FA2046FFF763F9049836
:1020100005B0F0BD502080F31188BFF34F8FBFF3A0
:102020006F8FFEE7502080F31188BFF34F8FBFF30F
:102030006F8FFEE70548416919B1006B18B10020A8
:102040007047012070470220704700001C000020EC
:102050002DE9F0412F4C0026206B28B1A069401CCF
:10206000A0613046BDE8F081E5686D1CE56013D1E4
:10207000606B006838B1502080F31188BFF34F8F38
:10208000BFF36F8FFEE7606BA16B6163A063206A93
:10209000401C2062FFF782FAA06ADFF87C8085424C
:1020A00009D3606B0068A0B1606BC068C7687868CE
:1020B000854211D2A0622068C06A00EB800158F806
:1020C0002100012800D90126E0690028C9D0012695
:1020D000C7E74FF0FF30EDE7381DFFF745FBB86A63
:1020E00018B107F11800FFF73FFBF96A01202269D8
:1020F00088401043206101EB810108EB8100391D0C
:10210000FFF776FBF86A2168C96A8842C9D30126BD
:10211000C7E700001C0000207405002070B5040013
:102120004FF0000034D01E4DE16A2A68D26A914215
:102130002FD2A069002804DB2868C06AC0F107001C
:10214000A061184E01EB8101606906EB81018842B4
:102150001AD1201DFFF708FB012130B994F82C009B
:102160002A6901FA00F082432A612868C06AE062A5
:102170002A6981401143296100EB800006EB800051
:10218000211DFFF735FB02E02868C06AE0620120EC
:1021900070BD616C2A68D26A9142F8D370BD0000AC
:1021A0001C000020740500202DE9F041C068C468BF
:1021B000ACB104F118000746FFF7D6FA154D286BAD
:1021C0000126A0B139461448FFF712FBE06A2968DE
:1021D000C96A88421CD90120EE61BDE8F081502017
:1021E00080F31188BFF34F8FBFF36F8FFEE7201D81
:1021F000FFF7BAFAE16A2A6906FA01F0104328618A
:1022000001EB81000449B43901EB8000211DDBE7BB
:102210000020E2E71C000020280600202DE9F047FE
:102220002C4D00242746286B38B1FFF7EDFA286BB8
:10223000401E2863286B40B146E0502080F311888F
:10224000BFF34F8FBFF36F8FFEE7A968224E0120C7
:10225000D1B3A6F1B40980463068E8B1F068C4682B
:1022600004F11800FFF780FA201DFFF77DFAE06AFD
:102270002A6908FA00F11143296100EB800109EB9A
:102280008100211DFFF7B4FAE06A2968C96A884213
:10229000E2D3C5F81C80DFE70CB1FFF77FF9AC692A
:1022A00044B14646FFF7D4FE00B1EE61641EF9D199
:1022B0000020A861E86938B108490127380708609B
:1022C000BFF34F8FBFF36F8FFFF7BEFA3846BDE8FD
:1022D000F08700001C0000202806002004ED00E02C
:1022E00044230008350F0008000000000000000033
:1022F00080000000000000000000000050230008E3
:102300003D0F0008000000000000000080000000F9
:102310008400002084020020010202030405060755
:1023200008090A0B0C0D0E0F101000000000000031
:102330000000010203040607080900000000010272
:102340000304000064656661756C745461736B000E
:102350005461736B5F427574746F6E007C23000868
:10236000000000208400000028010008002400086C
:102370008400002044180000440100080000000010
:10238000000000000000000001000000100000003C
:102390000000000000127A000000000000000000B1
:1023A000000000000000000000000000000000002D
:1023B000000000000000000000000000000000001D
:1023C000000000000000000000000000000000000D
:1023D00000000000000000000000000000000000FD
:1023E00000000000000000000000000000000000ED
:1023F0000000000000000000AAAAAAAA0000000035
:04000005080000ED02
:00000001FF
