:020000040800F2
:10000000A8070020A5010008971B00083B1A00085C
:10001000951B0008870600082D1D00080000000041
:100020000000000000000000000000009B1B000812
:10003000A106000800000000991B00089D1B000895
:10004000BF010008BF010008BF010008BF01000890
:10005000BF010008BF010008BF010008BF01000880
:10006000BF010008BF010008BF010008BF01000870
:10007000BF010008BF0100088906000895060008B6
:10008000BF010008BF010008BF010008BF01000850
:10009000BF010008BF010008BF010008BF01000840
:1000A000BF010008BF010008BF010008BF01000830
:1000B000BF010008BF010008BF010008BF01000820
:1000C000BF010008BF010008BF010008BF01000810
:1000D000BF010008211D0008BF010008BF01000882
:1000E000BF010008BF010008BF01000800F002F8CE
:1000F00000F048F80AA090E8000C82448344AAF17A
:100100000107DA4501D100F03DF8AFF2090EBAE877
:100110000F0013F0010F18BFFB1A43F0010318473B
:100120003C2200005C220000103A24BF78C878C14D
:10013000FAD8520724BF30C830C144BF04680C60ED
:10014000704700000023002400250026103A28BF35
:1001500078C1FBD8520728BF30C148BF0B60704739
:10016000642900F08980002070471FB500F02CFA48
:1001700004000020002102F0C5F8401C60601FBD93
:1001800010B510BD00F0FBF91146FFF7EEFF02F0CD
:1001900081F800F02BFA03B4FFF7F2FF03BC00F084
:1001A0006BFA00000948804709480047FEE7FEE770
:1001B000FEE7FEE7FEE7FEE7FEE7FEE7FEE7FEE717
:1001C00004480549054A064B70470000A11B00087A
:1001D000ED000008A8010020A8070020A8030020C7
:1001E000A80300200FB41CB5084B06AA7B4469463F
:1001F0000090059800F017F904460020694600F0C9
:1002000025F920461CBC5DF814FB00005D020000CF
:100210002DE9F0410E460446002020622046E168A8
:10022000884730B3252805D0D4E901219047206ABA
:10023000401CF2E7E168204600278847050018D0F7
:10024000A5F14100192802D820354FF40067324645
:10025000294620462760FFF783FF40B1012804D0DC
:10026000F61D26F007060836D8E7361DD6E72846DD
:10027000DAE7206ABDE8F0812DE9F0410646002466
:1002800010687529314616A510D0AFF300800028FC
:1002900002DA404213A507E031688A0701D512A5AA
:1002A00002E0490704D511A5012401E0AFF3008065
:1002B00000210A2206F1240709E0B0FBF2FCB0FBA2
:1002C000F2F302FB1C00303078541846491C002819
:1002D000F3D123462A463046BDE8F04100F044B849
:1002E000000000002D0000002B0000002000000096
:1002F00070B5064600F034F80468054630460A2218
:10030000002100F0A8F82C6070BD4FF0000200B58D
:10031000134694469646203922BFA0E80C50A0E828
:100320000C50B1F12001BFF4F7AF090728BFA0E8D6
:100330000C5048BF0CC05DF804EB890028BF40F8A2
:10034000042B08BF704748BF20F8022B11F0804FE4
:1003500018BF00F8012B70477047704770470000C6
:1003600000487047480100202DE9F0470D469946A6
:100370009246044600F124080168880604D5E06925
:1003800021F01001216000E00120A84201DD471B9F
:1003900000E00027A1697A1902EB0900081AA061A0
:1003A0002078C00602D42046AFF30080002608E083
:1003B000D4E901211AF806009047206A401C761CF7
:1003C00020624E45F4DB2078C0060AD52046AFF304
:1003D000008006E0D4E9012130209047206A401CCB
:1003E0002062381EA7F10107F4DC07E0D4E90121FF
:1003F00018F805009047206A401C2062281EA5F1CD
:100400000105F3DC2046AFF300802078000602D51A
:100410000220BDE8F0870120FBE7000001694A1CCB
:1004200002610878704700B58FB0CDE90131002135
:10043000059105497944CDE9031011466846FFF757
:10044000E7FE0FB000BD0000E5FFFFFF0A6802F8FD
:10045000010B0A6070472DE9F04791460F46804630
:100460000446002614F8015B2DB100F031F8006855
:10047000405DC007F6D12B2D02D02D2D18D0641E63
:100480004A463946204600F02BF827B13968A14288
:1004900001D1C7F800804FF0020471050BD540422E
:1004A000002803DDFFF75CFF0460A007BDE8F087CC
:1004B00046F48066E4E70028F8DAFFF751FF0460AD
:1004C0006FF00040F2E7000000487047480100204C
:1004D00010B500F079F8001D10BD00BF291E000006
:1004E0002DE9F05F824615468B4600270AF101048C
:1004F000B9460078302801D09DB113E014F8010B03
:100500000127782803D0582801D045B10AE00DB161
:10051000102D07D1002714F8010B102502E0082543
:1005200000E00A250026B0460EE005FB080005FBAA
:1005300006F101271FFA80F801EB1046B6F5803F5F
:1005400000D3B94614F8010B294600F041F8002801
:10055000EBDABBF1000F05D00FB1641E00E054468A
:10056000CBF80040B9F1000F06D0FFF7F9FE0221E9
:100570000160C81EBDE8F09F48EA0640FAE77546EC
:10058000FFF7A2FFAE4605006946534620F007007C
:10059000854618B020B5FFF713FEBDE820404FF0A8
:1005A00000064FF000074FF000084FF0000B21F05D
:1005B0000701AC46ACE8C009ACE8C009ACE8C0092A
:1005C000ACE8C0098D4670470048704768010020BC
:1005D0003A2800D2303820F02002412A01D3A2F17B
:1005E0003700884201D34FF0FF3070470446AFF325
:1005F00000802046FFF7CFFD4FF0013C50F8042B60
:1006000051F8043B9A4221D1A2EB0C03934313EA25
:10061000CC1317D150F8042B51F8043B9A4215D152
:10062000A2EB0C03934313EACC130BD150F8042B29
:1006300051F8043B9A4209D1A2EB0C03934313EA0D
:10064000CC13DBD04FF00000704700BFD01A01BAC6
:10065000B1FA81F101F0180122FA01F0CB40C1F1A9
:100660002001DBB2C0B2C01A2CFA01F3D11A9143B7
:1006700011EAC311E6D1704701491820ABBEFEE76D
:10068000260002007047FEE7014800F07BB800003A
:1006900004010020014800F075B80000C0000020EF
:1006A000704772B6FEE710B590F8211000220229BB
:1006B00005D00421816380F82020012010BD01684D
:1006C0000B6823F00E030B6001680B6823F0010335
:1006D0000B6090F84030C46B012101FA03F36360B2
:1006E00080F8211080F82020104610BD10B590F839
:1006F00021100024022903D00421816301243DE05C
:1007000001680A6822F00E020A6001680A6822F095
:1007100001020A601A4A0168914201D1012121E0D7
:10072000174A1432914201D110211BE0144A283299
:10073000914201D1891515E0114A3C32914201D113
:1007400089140FE00E4A5032914202D14FF48031A9
:1007500008E00B4A6432914202D14FF4801101E06B
:100760004FF08071064A083A5160012180F821104B
:10077000002180F82010416B01B18847204610BD50
:10078000080002402DE9F05FC16B0C6801680B683E
:10079000D0F840C0042202FA0CF2494DDFF824A13F
:1007A000494E4A4FDFF828B1DFF828E122422CD029
:1007B0005A072AD50A68920603D40A6822F004026E
:1007C0000A600168A94201D1042219E0514501D112
:1007D000402215E0B14202D14FF4806210E0B942EC
:1007E00002D14FF480420BE0594502D14FF48022F0
:1007F00006E0714502D14FF4800201E04FF08062C3
:100800002F4908394A60C16A3BE04FF0020808FAF4
:100810000CF818EA040F4FF000094FF0010235D030
:100820005FEA837832D50B689B0605D40B6823F00A
:100830000A030B6080F821200168A94201D102223D
:1008400019E0514501D1202215E0B14202D14FF407
:10085000007210E0B94202D14FF400520BE059454A
:1008600002D14FF4003206E0714502D14FF400127C
:1008700001E04FF00072124908394A6080F8209078
:10088000816A00291AD0BDE8F05F0847082505FAFB
:100890000CF5254212D01B0710D50B6823F00E0370
:1008A0000B6090F84010C36B02FA01F1596082634B
:1008B00080F8212080F82090016BE2E7BDE8F09FEE
:1008C000080002401C000240300002404400024088
:1008D000580002406C00024030B528B308C81349E4
:1008E00014221944B1FBF2F18900C16310498163FC
:1008F000022141771A6843F6F0718A43D0E9001467
:100900002143D0E902452C43214304692143446932
:10091000214384692143114319600021416301226D
:1009200042770177084630BD012030BDF8FFFDBF9A
:100930000000024070B5044690F820000025012810
:100940000CD0012084F8200094F821600020012EB2
:1009500006D084F820000225284670BD022070BD14
:10096000022684F82160A0632068066826F001064C
:100970000660204601F021FAE06A0028206801683C
:1009800002D041F00E0106E021F004010160206870
:10099000016841F00A0101602068016841F001012D
:1009A0000160D9E770B5044600F004F90546601C03
:1009B00002D004480078044400F0FCF8401BA04238
:1009C000FAD370BD0C0000202DE9F84FDFF8B89184
:1009D0000024A9F1040B23460F2709F1040AABF107
:1009E000040EC9E00125A5402A40AA427DD1674EE8
:1009F000D1F804C0ACEB0608B44532D014DCBCF12D
:100A0000030F3AD009DCBCF1000F2AD0BCF1010F72
:100A10001CD0BCF1020F31D11DE0BCF1110F17D079
:100A2000BCF1120F2AD119E0B8F5881F19D006DCE5
:100A3000B8F5803F15D0B8F5801F1FD111E0B8F58B
:100A4000001F0ED0B8F5041F18D10AE0CB6815E0DE
:100A5000CB681B1D12E0CB6808330FE0CB680C336A
:100A60000CE08B682BB1012B4FF0080303D04561DC
:100A700004E0042302E0056100E00023FF2A01D81E
:100A8000064601E000F104064FEA840501D9A5F10C
:100A90002005D6F8008007FA05FC28EA0C0803FABE
:100AA00005F548EA0508C6F800804D68ED0062D5F6
:100AB000374DAE6946F00106AE61AD6924F003061C
:100AC00005F001050095334D06EB050CDCF80850E8
:100AD000A607360F07FA06F825EA0805DFF8B880FA
:100AE000404503D14FF0000817E044E0DFF8AC8048
:100AF000404502D14FF001080FE0DFF8A4804045E7
:100B000002D14FF0020808E0DFF89880404502D19A
:100B10004FF0030801E04FF0040808FA06F848EA2D
:100B20000508CCF808804D68D9F80060ED024D4604
:100B300001D5164300E096432E604D68DAF8006058
:100B4000AD02554601D5164300E096432E604D6830
:100B5000DBF80060AD035D4601D5164300E0964327
:100B60002E604D68DEF80060ED03754601D5164332
:100B700000E096432E60641C0D682A46E5407FF431
:100B800031AFBDE8F88F00000804014000001110EB
:100B9000001002400000014000080140000C01402C
:100BA00000100140001401400AB1016170470904BE
:100BB000FBE7000001488068704700000C0000203F
:100BC0000248816802781144816070470C0000205F
:100BD000074810B5016841F010010160032000F0E2
:100BE00075F80F2000F006F800F024F8002010BD82
:100BF0000020024070B50D4D04464FF47A712878FC
:100C0000B1FBF0F00A490968B1FBF0F000F0DCFA42
:100C100048B9102C07D200222146501E00F036F8A9
:100C200000206C6070BD012070BD00000C00002031
:100C3000180000200C4808B5816941F0010181616C
:100C4000816901F001010091C16941F08051C161E8
:100C5000C06900F0805000900448416821F0E061D4
:100C600041F00071416008BD0010024000000140E9
:100C7000002809DB00F01F0201219140400980009B
:100C800000F1E020C0F8001170470000F0B40E4BF6
:100C90001B680C46C3F30223C3F10705042D00D9DA
:100CA0000425191D072901D2002300E0DB1E0126BF
:100CB00006FA05F1491E214099409E40761E1640D5
:100CC0003143F0BC01F0D5BA0CED00E0064900F06C
:100CD000070208684FF6FF03184040EA0220034A63
:100CE00010430860704700000CED00E00000FA05BA
:100CF0002DE9F0470F46050061D0434E306800F003
:100D00000700B84209D2306820F00700384330604D
:100D1000306800F00700B84251D128683B4C810789
:100D200012D5400703D5606840F4E0606060287821
:100D3000000703D5606840F4605060606068A9688F
:100D400020F0F000084360602878C00728D0686869
:100D5000012810D02168022810D0890700292EDA36
:100D6000616821F0030101436160FFF723FF8046C2
:100D700041F288390DE021688903EFE78901EDE749
:100D8000FFF718FFA0EB0801494502D90320BDE891
:100D9000F0876068696800F00C00B0EB810FEFD15C
:100DA000306800F00700B8420BD9306820F0070027
:100DB00038433060306800F00700B84201D00120AD
:100DC000E5E72878400705D56068E96820F4E06029
:100DD000084360602878000706D56068296920F418
:100DE000605040EAC100606000F038F86168084A6D
:100DF000C1F30311515CC840064908600648006809
:100E0000FFF7F8FE0020C2E7002002400010024079
:100E10004223000818000020100000200448054963
:100E200000684968044AC1F30221515CC840704718
:100E30001800002000100240522300080448054911
:100E400000684968044AC1F3C221515CC840704738
:100E50001800002000100240522300080E4A51687A
:100E60000E4811F00C0313D0042B11D0082B0FD116
:100E70000B48C1F38343C903C05C0AD55168084AD3
:100E8000C1F34041921E515C044A5043B0FBF1F063
:100E900070470449484370470010024000127A002E
:100EA0003223000800093D002DE9F84F040070D0FE
:100EB0002078C04DC00749D06868C0F38100012880
:100EC00007D06868C0F38100022809D16868C003B0
:100ED00006D52868800339D560680028E7D035E05A
:100EE0006068B0F5803F0BD010B1B0F5A02F11D0E5
:100EF000286820F480302860286820F4802002E0F0
:100F0000286840F480302860606890B1FFF752FE96
:100F100006460AE0286840F480202860F0E700BF19
:100F2000FFF748FE801B642873D828688003F7D534
:100F30000CE0FFF73FFE064605E000BFFFF73AFE74
:100F4000801B6428F0D828688003F7D420789A4E54
:100F500080074FF001094FF0000839D5686810F09C
:100F60000C0F07D06868C0F38100022809D16868B7
:100F7000C00306D42868800714D52069012808D149
:100F800010E02069B0B1C6F80090FFF713FE0746E5
:100F900005E00AE1FFF70EFEC01B0228C4D828684E
:100FA0008007F7D52868616920F0F80040EAC100A1
:100FB00028600DE0C6F80080FFF7FCFD074604E05E
:100FC000FFF7F8FDC01B022823D828688007F7D454
:100FD000207800072CD57948A169D9B1C0F80090D4
:100FE000FFF7E8FD074604E0FFF7E4FDC01B022819
:100FF0000FD8686A8007F7D571484FF4FA51006836
:10100000B0FBF1F0009000BF0098411E0091FAD2B1
:101010000EE080E0C0F80080FFF7CCFD074604E05A
:10102000FFF7C8FDC01B022875D8686A8007F7D48F
:101030002078400760D5E8690027C00008D4E86937
:1010400040F08050E861E869012700F0805000908E
:101050005C480168C90513D40168834641F4807176
:101060000160FFF7A7FD824606E000BFFFF7A2FD83
:10107000A0EB0A0064284ED8DBF80000C005F5D5C7
:10108000E06801280AD008B1052813D0286A20F0AA
:1010900001002862286A20F0040002E0286A40F07B
:1010A00001002862E06841F2883B98B1FFF782FDB9
:1010B00082460BE0286A40F004002862EEE700BF99
:1010C000FFF778FDA0EB0A0159455AD8286A800736
:1010D000F6D50CE0FFF76EFD824605E0FFF76AFDEE
:1010E000A0EB0A0159454CD8286A8007F6D41FB1F5
:1010F000E86920F08050E861E06988B36968C1F36D
:101100008101022944D00228C6F8608004D0FFF78C
:1011100051FD044638E034E0FFF74CFD074604E09B
:10112000FFF748FDC01B02282BD828688001F7D4A0
:10113000206AB0F5803F05D16868A16820F40030CE
:1011400008436860D4E908010843696821F4741110
:1011500008436860C6F86090FFF72CFD044606E07F
:1011600025E000BFFFF726FD001B022809D82868EC
:101170008001F7D51BE000BFFFF71CFD001B022814
:1011800002D90320BDE8F88F28688001F4D40EE06E
:101190000128F7D06868226A00F48031914204D1B6
:1011A000616A00F47010884201D00120EAE7002053
:1011B000E8E7000000100240000042428004424282
:1011C000180000200070004010B5401EB0F1807F74
:1011D00001D3012010BD4FF0E02460610F216017A2
:1011E00001F047F80020A06107202061002010BD19
:1011F00070B590F83C20012A26D0012480F83C40AC
:10120000022280F83D2003685A689D6822F070062B
:101210000A6832435A600D4B02689A4208D0B2F114
:10122000804F05D00A4B9A4202D00A4B9A4204D111
:10123000496825F080031943916080F83D40002102
:1012400080F83C10084670BD022070BD002C0140A3
:10125000000400400008004000B585B00021009166
:101260000191029103910068B0F1804F11D10A48B9
:10127000816941F0040181618069694600F00400E0
:101280000490012000900220019003900348FFF792
:101290009BFB05B000BD00000010024000080140AB
:1012A00070B5044690F83C0000260D4601280FD08A
:1012B000012084F83C006AB1042A1DD0082A2FD0EE
:1012C0000C2A3FD00126002084F83C00304670BD37
:1012D000022070BD206800F085FD2068816941F022
:1012E000080181612068816921F004018161206821
:1012F00081692A69114311E0206800F09DFC206893
:10130000816941F4006181612068816921F4806113
:101310008161206881692A6941EA02218161D2E7FD
:10132000206800F087FD2068C16941F00801C161B3
:101330002068C16921F00401C1612068C1692A697E
:10134000114311E0206800F0A1FD2068C16941F45B
:101350000061C1612068C16921F48061C1612068B8
:10136000C1692A6941EA0221C161ACE710B50400F4
:1013700003D094F83D0010B107E0012010BD00201B
:1013800084F83C00204600F01FF8022084F83D005D
:10139000211D206800F006FC012084F8460084F836
:1013A0003E0084F83F0084F8400084F8410084F84F
:1013B000420084F8430084F8440084F8450084F82F
:1013C0003D00002010BD000008B50068B0F1804F5E
:1013D00008D10548C16941F00101C161C06900F04F
:1013E0000100009008BD00000010024010B5044646
:1013F000022249B104290ED0082913D094F84100E3
:10140000012816D0012010BD94F83E000128F9D122
:1014100084F83E200FE094F83F000128F2D184F8D0
:101420003F2008E094F840000128EBD184F84020E8
:1014300001E084F841200122206800F0EFFB0F4911
:101440002068884203D1426C42F400424264206822
:10145000884208D0B0F1804F05D00949884202D0B7
:101460000849884204D1816801F00701062903D0A8
:10147000016841F001010160002010BD002C014015
:10148000000400400008004070477047F8B501684C
:1014900004460868CA684B6910F00F0F4FF000054A
:1014A0005AD003F0010602F49077374365D0C107A4
:1014B00005D0D10503D5616C41F00101616441079C
:1014C00005D5D90703D0616C41F002016164810741
:1014D00005D5D90703D0616C41F0040161640107AF
:1014E00007D502F02001314303D0616C41F00801BF
:1014F0006164616C00293BD0800604D5900602D55A
:10150000204600F067FD20684069616CC0F38010E0
:1015100001F00801014320462BD000F0D0FD2068E7
:101520004069400621D52068143050E8001F21F0A2
:10153000400140E80012002AF5D1E06BA8B16D49E6
:101540004163E06BFFF7D2F8002811D0E06B416BEC
:1015500001B0BDE8F040084783060ED593060CD5D0
:101560002046BDE8F84000F035BD2046FFF78DFF6E
:10157000F8BDFFF78AFF6564F8BD266B2023012EB6
:101580007CD1C6067AD5D60678D50868486800901A
:1015900048694FF00206400640D5E16B0868406894
:1015A0000004000CE8D0A28D8242E5D9E08588696C
:1015B00020282DD020680C3050E8001F21F48071C5
:1015C00040E80012002AF5D12168143151E8000FDB
:1015D00020F0010041E80002002AF5D12068143013
:1015E00050E8001F21F0400140E80012002AF5D128
:1015F00084F84230256320680C3050E8001F21F049
:10160000100140E80012002AF5D1E06BFFF74BF81B
:101610006663A08DE18D401A81B22AE0A08DE18D34
:10162000401A81B2E08D0028A6D00029A4D02268FB
:101630000C3252E8000F20F4907042E80007002FAF
:10164000F5D12068143050E8002F22F0010240E864
:101650000027002FF5D184F84230256320680C3034
:1016600050E8002F22F0100240E80023002BF5D1B3
:1016700066632046FFF708FFF8BDFFE705062BD598
:10168000150629D594F841002128F5D1A068B0F5B8
:10169000805F01D12069B0B1206A411C21622168BC
:1016A00000784860E08C401E0004000CE084E3D128
:1016B0002068C16821F08001C1602068C16841F0E4
:1016C0004001C160D8E7206A0088C0F30800486084
:1016D000206A801C2062E5E74006CDD55006CBD5B8
:1016E000CA68204622F04002CA6084F8413000F007
:1016F00097F9C1E7AF21000870B5040004D094F851
:101700004100002510B106E0012070BD84F8405072
:10171000204600F023F8242084F841002068C168A6
:1017200021F40051C160204600F0F8FB20680169F7
:1017300021F4904101612068416921F02A01416151
:101740002068C16841F40051C1606564202084F8BC
:10175000410084F842006563002070BDF0B585B09B
:1017600000240646009401940294039400682D49D5
:10177000884254D12C48816941F48041816181695A
:1017800001F480410491816941F004018161806923
:10179000264D00F0040004904FF4007000900220E9
:1017A00001900320039069462846FFF70DF928159C
:1017B000CDE90004694628460294FFF705F91D4D5E
:1017C0001B488027C5E90004C5E902472C616C610C
:1017D000AC612846EC61FFF77FF808B1FEF761FFC6
:1017E000F5636E62134D12484435143801C510205C
:1017F00091C5104845F8104944306C61AC61EC610A
:10180000FFF76AF808B1FEF74CFFB56300221146F6
:1018100025206E62FFF73AFA2520FFF729FA05B076
:10182000F0BD0000003801400010024000080140F7
:1018300058000240C000002090F84230202B01D018
:101840000220704721B11AB10023036300F020BACF
:1018500001207047F8B5204988423BD11F480178E4
:10186000412908D141784E2905D18178472902D1F3
:10187000C1783A2903D064230A2219A120E0002468
:10188000214604226B460094855CA5F13006092EA2
:1018900006D8042904DA5D54491C521C072AF3DBDC
:1018A0005C541846FEF724FDB42806D8C0B200F0F8
:1018B0003FFA642308220DA102E0642309220EA14D
:1018C000054800F020F8BDE8F84007220349024827
:1018D000FFF7B2BFF8BD0000780000200200002032
:1018E000554E4B20434D440D0A000000434D44200B
:1018F0004F4B0D0A0000000045525220414E470D4B
:101900000A00000070472DE9F843044690F84100B2
:10191000984616460D46202802D00220BDE8F883DE
:1019200085B17EB100206064212084F84100FFF77A
:1019300041F9A6848146E684A0682027B0F5805F3F
:1019400002D003E00120E9E7206910B12E4600250E
:101950000EE000260CE08021204600F051FCA8B9E2
:10196000C6B116F8010B21684860E08C401EE08487
:10197000E08C4B464FF00002CDF800800028EAD101
:101980004FF04001204600F03BFC40B184F841702C
:101990000320C3E735F8020BC0F30800E3E784F83F
:1019A00041700020BAE7000070B5044690F841008D
:1019B000202801D0022070BD49B342B32162A28425
:1019C000E28400206064212384F84130A56B114B30
:1019D000AB62A56B104BEB62A56B104B2B63A36B3B
:1019E0005863256813462A1DA06BFEF7A3FF2168E4
:1019F0006FF0400008602068143050E8001F41F08C
:101A0000800140E80012002AF5D1002070BD0120BD
:101A100070BD0000BF210008B5200008D11E0008DD
:101A20000349884202D103490020487070470000F2
:101A300078000020000000207047FEE70D4808B540
:101A4000416941F0010141614069002200F001005B
:101A5000009011460E20FFF719F90E20FFF708F944
:101A6000002211460F20FFF711F9BDE808400F20B2
:101A7000FFF7FEB80010024070B586B00024184889
:101A80000094019402940394816941F010018161F2
:101A9000816901F010010491816941F020018161A7
:101AA000816901F020010491816941F004018161A3
:101AB00080690C4E00F004004FF4005504900022A1
:101AC00029463046FFF770F801200095CDE9010462
:101AD0000220039069463046FEF776FF06B070BDDF
:101AE000001002400010014010B58AB00024079495
:101AF0001C2168460894FEF708FC17484FF0804107
:101B000001604721C0E9011444F62061C0E90314D3
:101B10008461FFF72BFC08B1FEF7C3FD079407A90A
:101B20000D480894FFF764FB08B1FEF7BAFD60208A
:101B3000009040F2DC50CDE90104002269460648DD
:101B40000494FFF7ADFB08B1FEF7ABFD0248FFF7C9
:101B500083FB0AB010BD0000300000200C4810B517
:101B60000A4901604FF4E1314160002181600C229B
:101B7000C160C0E904128161C161FFF7BDFD0028A9
:101B800003D0BDE81040FEF78CBD10BD0038014009
:101B900078000020FEE7FEE770477047FFF710B8B7
:101BA00070470000F0B50268194B1A4C1A4D4FF0FF
:101BB0008047984205D0B84203D0A04201D0A84245
:101BC00003D122F070064A683243984205D0B842E9
:101BD00003D0A04201D0A84203D122F44074CA68C5
:101BE00022434C6922F08002224302608A68C2626A
:101BF0000A688262984201D1096901630121416149
:101C00000169C90703D0016921F001010161F0BD3B
:101C1000002C0140000400400008004010B501F015
:101C20001F030121046A99408C430462016A9A40AF
:101C30001143016210BD000030B5026A036A23F04F
:101C400010030362436884690D6824F4E64444EA9F
:101C500005248D6822F0200242EA05120B4DA842AD
:101C60000ED1CD6822F0800242EA05124D6923F4BC
:101C7000406343EA85038D6922F0400243EA85030D
:101C80004360846149688163026230BD002C014079
:101C900038B58162044682850020134660642222A2
:101CA00084F84220E56B1B4AAA62E56B1A4AEA6295
:101CB000E56B1A4A2A63E26B50630A462168E06BBF
:101CC000091DFEF737FE2068016840680090206912
:101CD00048B120680C3050E8001F41F4807140E8A2
:101CE0000012002AF5D12068143050E8001F41F09E
:101CF000010140E80012002AF5D12068143050E8B4
:101D0000001F41F0400140E80012002AF5D10020F8
:101D100038BD00002921000897200008D11E0008C6
:101D20000148FFF7B3BB000078000020FEE7000089
:101D3000B42800D9B4204FF4FA614143B422B1FB76
:101D4000F2F1044A01F5FA7189B21268516302494D
:101D500008707047300000200000002030B58FB0C0
:101D600028216846FEF7D1FA14210AA8FEF7CDFA19
:101D700001210804CDE900100024029402250491F9
:101D8000CDE907504FF4E01009906846FFF78CF852
:101D900008B172B6FEE70F20CDE90A054FF4806066
:101DA000CDE90C4002210AA80E94FEF7A1FF0028FD
:101DB00001D072B6FEE70FB030BD30B590F840509C
:101DC0000124AC40C56B6C60046863604368102BF1
:101DD000036803D099600068C26030BD9A600068F3
:101DE000C16030BD30B5036A026A22F001020262AE
:101DF0004268846924F073050C682C4323F00205C3
:101E00008B682B430A4DA8420BD123F00805CB6801
:101E100022F440722B434D6923F0040315438A6971
:101E20002A434260846149684163036230BD000017
:101E3000002C014030B5036A026A22F4807202620B
:101E40004268C46923F4007324F073050C682C43C2
:101E50008D6843EA05230C4DA8420ED1CD6823F4CA
:101E6000006343EA05234D6922F4405242EA051219
:101E70008D6923F4806342EA05124260C4614968B7
:101E8000C163036230BD0000002C014030B5046A1C
:101E9000026A22F4805202624268C3690D6823F428
:101EA000E64343EA05238D6824F4005444EA0534EC
:101EB000064DA84204D14D6922F4804242EA8512BF
:101EC0004260C36149680164046230BD002C014076
:101ED00070B5446A2068406994F84110C0F3C0109E
:101EE0000025212904D118B1E584204600F00EF91F
:101EF0002068406994F84210C0F38010222904D170
:101F000018B1E585204600F0DAF8606C40F010006A
:101F100060642046FFF7B9FA70BD000070B5044652
:101F200000680169E26821F44051114301612169AF
:101F3000A0680843616908432168CA6841F20C63DC
:101F40009A430243CA6020684169A26921F4407142
:101F5000114341611E492068884202D1FEF76EFF9D
:101F600001E0FEF75BFF00EBC00101EB00126068CF
:101F700064218000B2FBF0F3B3FBF1F36FF01806BD
:101F80007343B2FBF0F5B2FBF0F605EB83053223A9
:101F900003EB0515B5FBF1F5B6FBF1F605F0F00521
:101FA00005EB0615B2FBF0F6B2FBF0F0B0FBF1F07A
:101FB0006FF01802504306EB800003EB0010B0FBFB
:101FC000F1F0216800F00F002844886070BD000027
:101FD0000038014008B590F84210222901D00220B3
:101FE00008BD82684FF480539A4201D1016921B142
:101FF000816A9A421BD04AB10AE00268816A52683B
:10200000C2F308020A80816A891C08E0026972B181
:102010000268526802F07F020A70816A491C81627C
:10202000C18D491E0904090CC18503D01BE002685B
:102030005268F1E70168CA6822F02002CA600168AC
:10204000CA6822F48072CA6001684A6922F00102FB
:102050004A61202180F8421000214163026B012A6D
:1020600003D0FFF7F7FB002008BD016301680C31C6
:1020700051E8002F22F0100241E80023002BF5D197
:1020800001680A68D20602D50A6849680091818D04
:10209000FFF7FAF9E7E710B5406A01214163016BE8
:1020A000012902D0FFF72EFC10BD818D4908FFF7F2
:1020B000EBF910BD10B5406AFFF7BEFC10BD01681A
:1020C0000C3151E8002F22F4907241E80023002BDC
:1020D000F5D10168143151E8002F22F0010241E8E6
:1020E0000023002BF5D1016B012909D101680C31C6
:1020F00051E8002F22F0100241E80023002BF5D117
:10210000202180F8421000210163704701680C31E2
:1021100051E8002F22F0C00241E80023002BF5D146
:10212000202180F84110704710B50146406A0968C7
:1021300009684FF0000289062ED4C28501680C316F
:1021400051E8003F23F4807341E80034002CF5D1BE
:102150000168143151E8003F23F0010341E80034E5
:10216000002CF5D10168143151E8003F23F0400301
:1021700041E80034002CF5D1202180F84210016B99
:10218000012909D101680C3151E8003F23F0100307
:1021900041E80034002CF5D14263016B012902D0E3
:1021A000FFF758FB10BD818DFFF76EF910BD10B51C
:1021B000406A0021C185C184FFF767F910BD10B5E1
:1021C0000146406A09680968890616D40021C1845D
:1021D0000168143151E8002F22F0800241E8002309
:1021E000002BF5D101680C3151E8002F42F040027C
:1021F00041E80023002BF5D110BDFFF711FC10BD05
:102200002DE9F843984617460D460446089E24E0FB
:10221000701C22D0FEF7CEFCA0EB0800B0421AD80A
:10222000CEB12068C168490717D5802D15D0402D43
:1022300013D00168C94309070FD40168002540681D
:1022400000902046FFF73BFF0820606484F8405070
:102250000120BDE8F8830320FBE72068006835EA29
:10226000000004D00020B842D2D00020F1E70120C5
:10227000F9E70907090E002804DB00F1E02080F8E7
:102280000014704700F00F0000F1E02080F8141DEA
:1022900070470000FEF79CFCFFF760FDFFF7ECFBCA
:1022A000FFF7CCFBFFF75AFCFFF71EFC07220E4995
:1022B0000E48FFF7C1FA00210D48FFF797F80A4CC6
:1022C000A41E0125607850B922780AA10C48FDF7B8
:1022D00089FF82B265700A490448FFF765FB6420F4
:1022E000FEF760FBEEE7000002000020780000200F
:1022F00030000020414E474C453A25640D0A00004D
:102300001C00002010B500290AD00878002807D04A
:1023100005487844FEF770F9002801D0002010BD70
:102320000248784410BD00006A000000620000000E
:10233000010202030405060708090A0B0C0D0E0F23
:102340001010000000000000000001020304060756
:102350000809000000000102030400008C240008AA
:10236000000000201C00000028010008A82400082C
:102370001C0000208C070000440100081001000030
:1023800043000000F8FFFFFF004040404040404055
:102390004040414141414140404040404040404038
:1023A00040404040404040404005020202020202DC
:1023B000020202020202020202202020202020202B
:1023C000202020020202020202029090909090903F
:1023D00010101010101010101010101010101010FD
:1023E0001010101002020202020288888888888871
:1023F000080808080808080808080808080808085D
:102400000808080802020202400000000000000064
:1024100000000000000000000000000000000000BC
:1024200000000000000000000000000000000000AC
:10243000000000000000000000000000000000009C
:10244000000000000000000000000000000000008C
:10245000000000000000000000000000000000007C
:10246000000000000000000000000000000000006C
:10247000000000000000000000000000000000005C
:10248000000000000000000000000000000000004C
:10249000000000000000000001000000100000002B
:0824A0000000000000127A00A8
:04000005080000ED02
:00000001FF
